S01C00004D41444C4144535F726563656976657244656D6F2E73726563D9
S113000045C0000060C0000071C100005CC0000079
S11300105AC0000058C0000056C0000054C0000080
S113002052C0000050C000004EC000004CC0000090
S11300304AC00000FAC0000046C0000044C00000EE
S113004042C0000040C000003EC000003CC00000B0
S11300503AC0000038C0000036C0000034C00000C0
S113006032C0000030C000002EC000002CC00000D0
S11300702AC0000028C0000026C0000024C00000E0
S113008022C0000020C000001EC0000011241FBEBA
S1130090CFEFD0E4DEBFCDBF11E0A0E0B1E0E8E5F2
S11300A0FCE000E00BBF02C007900D92A430B10742
S11300B0D9F721E0A4E0B1E001C01D92A933B20751
S11300C0E1F7DAD4C7C59CCF0F931F93CF93DF9387
S11300D0CDB7DEB7109212019DC080911201282F76
S11300E030E04BE0429FC001439F900D1124885E95
S11300F09E4FFC0120813181428153818091120104
S1130100682F70E0EBE0E69FC001E79F900D11249B
S11301108C5E9E4FFC0180819181A281B38128175E
S113012039074A075B0708F442C080911201082F7F
S113013010E080911201282F30E04BE0429FC00173
S1130140439F900D1124845E9E4FFC0120813181D8
S113015080911201482F50E06BE0649FC001659FBD
S1130160900D11248D5E9E4FFC018081082E000CA1
S1130170990BF9010995382F2BE0209FC001219F8D
S1130180900D11248D5E9E4FFC01308380911201ED
S1130190282F30E04BE0429FC001439F900D112473
S11301A0885E9E4FFC01108211821282138280911C
S11301B01201682F70E080911201282F30E04BE08B
S11301C0429FC001439F900D1124885E9E4FFC0105
S11301D020813181428153818091000190910101FC
S11301E0A0910201B0910301820F931FA41FB51FB8
S11301F04BE0469F9001479F300D1124285E3E4FEF
S1130200F90180839183A283B383809112018F5F6C
S11302108093120180911201833008F45ECF0000B4
S1130220DF91CF911F910F9108951F920F9200902B
S11302305F000F92112400905B000F922F933F9365
S11302404F935F936F937F938F939F93AF93BF93DA
S1130250EF93FF93CF93DF93CDB7DEB78091040183
S113026090910501A0910601B09107010197A109A0
S1130270B1098093040190930501A0930601B09302
S113028007018091040190910501A0910601B091AC
S11302900701892B8A2B8B2B89F416DF80910001AF
S11302A090910101A0910201B09103018093040196
S11302B090930501A0930601B09307010000DF911C
S11302C0CF91FF91EF91BF91AF919F918F917F91CA
S11302D06F915F914F913F912F910F9000925B002E
S11302E00F9000925F000F901F9018951F920F922D
S11302F000905F000F92112400905B000F922F93E7
S11303003F938F939F93EF93FF93CF93DF93CDB757
S1130310DEB780910A018130A9F410920A0181E9C3
S113032090E0FC01108284E990E0FC0180819181DD
S1130330909309018093080184E990E0FC01118203
S113034010820CC081E080930A0181E990E021E9E8
S113035030E0F90120812260FC0120830000DF915C
S1130360CF91FF91EF919F918F913F912F910F909A
S113037000925B000F9000925F000F901F90189501
S1130380CF93DF9300D000D0CDB7DEB769837A83F3
S11303908B839C8389819A81AB81BC81809300018A
S11303A090930101A0930201B09303018091000195
S11303B090910101A0910201B09103018093040185
S11303C090930501A0930601B093070100000F90DC
S11303D00F900F900F90DF91CF910895CF93DF93FB
S11303E0CDB7DEB781E890E02BE0FC01208388E8FC
S11303F090E02DE730E0FC01318320838FE690E02C
S113040022E0FC01208384E890E0FC011182108248
S11304108091000190910101A0910201B09103012A
S11304208093040190930501A0930601B093070102
S11304308FE590E02FE530E0F90120812068FC0190
S113044020830000DF91CF910895CF93DF9300D0F4
S113045000D000D0CDB7DEB79E838D831A82198277
S113046013C01C821B8206C000008B819C810196F4
S11304709C838B838B819C8187309340ACF38981EF
S11304809A8101969A83898329813A818D819E81FB
S11304902817390734F3000026960FB6F894DEBF08
S11304A00FBECDBFDF91CF910895CF93DF93CDB72A
S11304B0DEB784E290E024E230E0F9012081206498
S11304C0FC0120838CE490E02CE430E0F9012081ED
S11304D0206CFC0120838FE590E02FE530E0F901EA
S11304E020812068FC0120830000DF91CF910895D2
S11304F0CF93DF9300D000D000D0CDB7DEB78B838D
S11305007D836C834E8385E290E025E230E0F9013F
S113051020812E7FFC0120838EE490E02B812F71BB
S11305202062FC01208300008DE490E0FC018081C6
S11305308823D4F78EE490E0FC0180818A831982B9
S113054017C08EE490E02981222F30E04C815D8138
S1130550240F351FF9012081FC01208300008DE464
S113056090E0FC0180818823D4F789818F5F89839F
S113057099818E81981728F385E290E025E230E096
S1130580F90120812160FC0120838A8126960FB61F
S1130590F894DEBF0FBECDBFDF91CF910895CF9306
S11305A0DF9300D000D000D0CDB7DEB78B837D833E
S11305B06C834E8385E290E025E230E0F9012081EE
S11305C02E7FFC0120838EE490E02B812F71FC01AF
S11305D0208300008DE490E0FC0180818823D4F71F
S11305E08EE490E0FC0180818A83198224C08EE429
S11305F090E02981222F30E04C815D81240F351F4A
S1130600F9012081FC01208300008DE490E0FC01CD
S113061080818823D4F78981882F90E02C813D81C3
S1130620820F931F2EE430E0F9012081FC01208326
S113063089818F5F898399818E819817C0F285E2C1
S113064090E025E230E0F90120812160FC01208363
S11306508A8126960FB6F894DEBF0FBECDBFDF9118
S1130660CF910895CF93DF9300D000D01F92CDB7E0
S1130670DEB79C838B836D8385E290E025E230E0D6
S1130680F90120812E7FFC0120838EE490E021E695
S1130690FC01208300008DE490E0FC01808188232C
S11306A0D4F78EE490E0FC0180818A83198224C00F
S11306B08EE490E02981222F30E04B815C81240F6D
S11306C0351FF9012081FC01208300008DE490E0B6
S11306D0FC0180818823D4F78981882F90E02B81C5
S11306E03C81820F931F2EE430E0F9012081FC014C
S11306F0208389818F5F898399818D819817C0F2C6
S113070085E290E025E230E0F90120812160FC01DE
S113071020838A810F900F900F900F900F90DF919C
S1130720CF910895CF93DF931F92CDB7DEB785E2C3
S113073090E025E230E0F90120812E7FFC01208346
S11307408EE490E022EEFC01208300008DE490E032
S1130750FC0180818823D4F78EE490E0FC01808141
S1130760898385E290E025E230E0F901208121606F
S1130770FC01208389810F90DF91CF910895CF935D
S1130780DF9300D000D0CDB7DEB78FDE84E290E0F7
S113079024E230E0F90120812360FC01208385E21A
S11307A090E025E230E0F90120812560FC012083FE
S11307B085E090E04ADE83E3898388E18A8384E0EC
S11307C08B8386E98C8341E0CE010196BC0180E0F5
S11307D08FDE81E0898341E0CE010196BC0183E094
S11307E087DECE01029643E0BC018AE081DE8CE420
S11307F0898341E0CE010196BC0185E079DE19824E
S113080041E0CE010196BC0181E072DE85E089837E
S113081041E0CE010196BC0181E16ADE83DF85E21D
S113082090E025E230E0F90120812260FC01208380
S113083000000F900F900F900F90DF91CF910895CB
S1130840CF93DF93CDB7DEB785E290E025E230E0C9
S1130850F9012081277FFC0120838AE090E0F5DD07
S113086085E290E025E230E0F90120812860FC0176
S1130870208385DF0000DF91CF910895CF93DF932C
S11308801F92CDB7DEB741E0CE010196BC0187E1EE
S113089086DE8981882F90E081709927892B11F455
S11308A081E001C080E00F90DF91CF910895CF9354
S11308B0DF9300D01F92CDB7DEB79A8389836B8311
S11308C089819A816B81CEDE00000F900F900F908A
S11308D0DF91CF910895CF93DF9300D0CDB7DEB7EA
S11308E09A83898389819A81009721F0019709F479
S11308F04FC099C0C3DF8823A9F11092340161E08D
S11309008BE091E0D4DF80910B0180930C0182E2B3
S113091090E020910C01FC01208380910C018370F4
S113092080930E0180910C01869586958770809343
S11309300D0180910C018295869586958370817056
S113094080930F0180910C01829586958770817048
S11309508093100180910C01881F8827881F809341
S1130960110113C0809134018F5F80933401809111
S11309703401883251F480E480930C0110923401E4
S113098081E090E09A83898354C01A82198251C00D
S113099075DF8823B9F11092340161E08BE091E0B6
S11309A086DF80910B0180930C0182E290E020911C
S11309B00C01FC01208380910C01837080930E0153
S11309C080910C0186958695877080930D018091A6
S11309D00C018295869586958370817080930F01B2
S11309E080910C01829586958770817080931001A7
S11309F080910C01881F8827881F809311011A8217
S1130A00198217C0809134018F5F809334018091E3
S1130A103401883219F414DF1092340181E090E03B
S1130A209A83898306C010923401A9DE1A8219823E
S1130A30000089819A810F900F90DF91CF910895E2
S1130A40CF93DF9300D0CDB7DEB79A8389838FEF3E
S1130A509FEF0F900F90DF91CF910895CF93DF9385
S1130A6000D0CDB7DEB79A8389838FEF9FEF0F90C5
S1130A700F90DF91CF910895CF93DF931F92CDB75D
S1130A80DEB781E290E02FEFFC01208382E290E068
S1130A90FC0110828AE290E02FEFFC0120838BE2BC
S1130AA090E0FC01108261E070E080E090E068DC9E
S1130AB095DC19828981282F30E04BE0429FC001E8
S1130AC0439F900D11248D5E9E4F2FEFFC012083D8
S1130AD08981282F30E04BE0429FC001439F900D55
S1130AE011249C012C5E3E4F82E390E0A0E0B0E034
S1130AF0F90180839183A283B3838981282F30E015
S1130B004BE0429FC001439F900D1124885E9E4F8D
S1130B10FC0110821182128213828981282F30E015
S1130B204BE0429FC001439F900D1124845E9E4F71
S1130B302BE634E0FC013183208389818F5F898334
S1130B408981282F30E04BE0429FC001439F900DE4
S1130B5011248D5E9E4F2FEFFC0120838981282F65
S1130B6030E04BE0429FC001439F900D11249C0153
S1130B702C5E3E4F8CE291E0A0E0B0E0F90180836E
S1130B809183A283B3838981282F30E04BE0429F75
S1130B90C001439F900D1124885E9E4FFC0110827A
S1130BA01182128213828981282F30E04BE0429F08
S1130BB0C001439F900D1124845E9E4F20E235E0D6
S1130BC0FC013183208389818F5F89838981282F68
S1130BD030E04BE0429FC001439F900D11248D5E95
S1130BE09E4F2FEFFC0120838981282F30E04BE0BA
S1130BF0429FC001439F900D11249C012C5E3E4FE7
S1130C0082E390E0A0E0B0E0F90180839183A283C5
S1130C10B3838981282F30E04BE0429FC001439F7A
S1130C20900D1124885E9E4FFC0110821182128265
S1130C3013828981282F30E04BE0429FC001439FFB
S1130C40900D1124845E9E4F2EE235E0FC01318329
S10B0C502083FFCFF894FFCFCD
S1070C580100000093
S9030000FC
