:1000000045C0000060C0000071C100005CC000007D
:100010005AC0000058C0000056C0000054C0000084
:1000200052C0000050C000004EC000004CC0000094
:100030004AC00000FAC0000046C0000044C00000F2
:1000400042C0000040C000003EC0000021C20000CD
:100050003AC0000038C0000036C0000034C00000C4
:1000600032C0000030C000002EC000002CC00000D4
:100070002AC0000028C0000026C0000024C00000E4
:1000800022C0000020C000001EC0000011241FBEBE
:10009000CFEFD0E4DEBFCDBF11E0A0E0B1E0E6E3FA
:1000A000F9E000E00BBF02C007900D92A630B10747
:1000B000D9F721E0A6E0B1E001C01D92A933B20753
:1000C000E1F748D336C49CCF0F931F93CF93DF93B0
:1000D000CDB7DEB7109213019DC080911301282F78
:1000E00030E04BE0429FC001439F900D1124875E9A
:1000F0009E4FFC0120813181428153818091130107
:10010000682F70E0EBE0E69FC001E79F900D11249F
:100110008B5E9E4FFC0180819181A281B381281763
:1001200039074A075B0708F442C080911301082F82
:1001300010E080911301282F30E04BE0429FC00176
:10014000439F900D1124835E9E4FFC0120813181DD
:1001500080911301482F50E06BE0649FC001659FC0
:10016000900D11248C5E9E4FFC018081082E000CA6
:10017000990BF9010995382F2BE0209FC001219F91
:10018000900D11248C5E9E4FFC01308380911301F1
:10019000282F30E04BE0429FC001439F900D112477
:1001A000875E9E4FFC011082118212821382809121
:1001B0001301682F70E080911301282F30E04BE08D
:1001C000429FC001439F900D1124875E9E4FFC010A
:1001D0002081318142815381809100019091010100
:1001E000A0910201B0910301820F931FA41FB51FBC
:1001F0004BE0469F9001479F300D1124275E3E4FF4
:10020000F90180839183A283B383809113018F5F6F
:100210008093130180911301833008F45ECF0000B6
:10022000DF91CF911F910F9108951F920F9200902F
:100230005F000F92112400905B000F922F933F9369
:100240004F935F936F937F938F939F93AF93BF93DE
:10025000EF93FF93CF93DF93CDB7DEB78091060185
:1002600090910701A0910801B09109010197A1099E
:10027000B1098093060190930701A0930801B09300
:1002800009018091060190910701A0910801B091A8
:100290000901892B8A2B8B2B89F416DF80910001B1
:1002A00090910101A0910201B09103018093060198
:1002B00090930701A0930801B09309010000DF911A
:1002C000CF91FF91EF91BF91AF919F918F917F91CE
:1002D0006F915F914F913F912F910F9000925B0032
:1002E0000F9000925F000F901F9018951F920F9231
:1002F00000905F000F92112400905B000F922F93EB
:100300003F938F939F93EF93FF93CF93DF93CDB75B
:10031000DEB780910C018130A9F410920C0181E9C3
:1003200090E0FC01108284E990E0FC0180819181E1
:1003300090930B0180930A0184E990E0FC01118203
:1003400010820CC081E080930C0181E990E021E9EA
:1003500030E0F90120812260FC0120830000DF9160
:10036000CF91FF91EF919F918F913F912F910F909E
:1003700000925B000F9000925F000F901F90189505
:10038000CF93DF9300D000D0CDB7DEB769837A83F7
:100390008B839C8389819A81AB81BC81809300018E
:1003A00090930101A0930201B09303018091000199
:1003B00090910101A0910201B09103018093060187
:1003C00090930701A0930801B093090100000F90DA
:1003D0000F900F900F90DF91CF910895CF93DF93FF
:1003E000CDB7DEB781E890E02BE0FC01208388E800
:1003F00090E02DE730E0FC01318320838FE690E030
:1004000022E0FC01208384E890E0FC01118210824C
:100410008091000190910101A0910201B09103012E
:100420008093060190930701A0930801B0930901FE
:100430008FE590E02FE530E0F90120812068FC0194
:1004400020830000DF91CF910895CF93DF93CDB744
:10045000DEB784E290E024E230E0F90120812064FC
:10046000FC0120838CE490E02CE430E0F901208151
:10047000206CFC0120838FE590E02FE530E0F9014E
:1004800020812068FC0120830000DF91CF91089536
:100490001F920F9200905F000F92112400905B005A
:1004A0000F928F939F93EF93FF93CF93DF93CDB7EB
:1004B000DEB78EE490E0FC01808180930D010000A6
:1004C000DF91CF91FF91EF919F918F910F900092CB
:1004D0005B000F9000925F000F901F901895CF93D4
:1004E000DF9300D0CDB7DEB78A83198227C088E2B8
:1004F00090E028E0FC01208388E290E028E230E0F0
:10050000F9012081622F2A81222F30E04981442F76
:1005100050E002C0359527954A95E2F72170262BC9
:10052000FC01208388E290E028E230E0F90120819C
:100530002460FC01208389818F5F898389818830D1
:10054000B0F288E290E028E230E0F90120812260F8
:10055000FC01208388E290E0FC01108200000F90F3
:100560000F90DF91CF910895CF93DF9300D0CDB757
:10057000DEB79A83898389819A81009719F0019760
:1005800051F12FC080910D01837080930F018091F4
:100590000D0186958695877080930E0180910D01DF
:1005A00082958695869583708170809310018091E5
:1005B0000D018295869587708170809311018091DD
:1005C0000D01881F8827881F8093120181E090E029
:1005D0009A8389830BC080910D0181DF1A82198271
:1005E00005C081E090E09A838983000089819A8127
:1005F0000F900F90DF91CF910895CF93DF9300D0AC
:10060000CDB7DEB79A83898389819A81009719F0E3
:100610000197C1F16CC080910E01813021F0809171
:100620000E01833089F480910401813021F480E847
:100630008093040109C080910401813029F08091E8
:10064000040186958093040180910E01843021F08D
:1006500080910E01863089F480910401803821F464
:1006600081E08093040109C080910401803829F061
:1006700080910401880F8093040181E090E09A83C7
:10068000898338C080910E01823041F080910E0143
:10069000833021F080910E01863089F4809105012C
:1006A000813021F480E88093050109C08091050123
:1006B000813029F080910501869580930501809114
:1006C0000E01853089F480910501803821F481E0A4
:1006D0008093050109C080910501803829F080913F
:1006E0000501880F809305011A82198203C01A82BE
:1006F0001982000089819A810F900F90DF91CF912C
:100700000895CF93DF9300D0CDB7DEB79A83898366
:1007100080913801882F90E0892B81F485E290E068
:10072000209104012095FC01208382E290E0209139
:100730000501FC0120831092380103C0109238019A
:10074000000080913801882F90E00F900F90DF918A
:10075000CF910895CF93DF931F92CDB7DEB781E29B
:1007600090E02FEFFC01208382E290E0FC011082F8
:100770008AE290E02FEFFC0120838BE290E0FC0105
:10078000108261E070E080E090E0FADD27DE5DDE5F
:1007900019828981282F30E04BE0429FC001439F9E
:1007A000900D11248C5E9E4F2FEFFC0120838981D8
:1007B000282F30E04BE0429FC001439F900D112451
:1007C0009C012B5E3E4F82E390E0A0E0B0E0F90197
:1007D00080839183A283B3838981282F30E04BE00B
:1007E000429FC001439F900D1124875E9E4FFC01E4
:1007F00010821182128213828981282F30E04BE00F
:10080000429FC001439F900D1124835E9E4F24EBB5
:1008100032E0FC013183208389818F5F8983898164
:10082000282F30E04BE0429FC001439F900D1124E0
:100830008C5E9E4F2FEFFC0120838981282F30E0B2
:100840004BE0429FC001439F900D11249C012B5E01
:100850003E4F8CE291E0A0E0B0E0F901808391830B
:10086000A283B3838981282F30E04BE0429FC001EF
:10087000439F900D1124875E9E4FFC0110821182D0
:10088000128213828981282F30E04BE0429FC00101
:10089000439F900D1124835E9E4F2DEF32E0FC01AB
:1008A0003183208389818F5F89838981282F30E07C
:1008B0004BE0429FC001439F900D11248C5E9E4FE0
:1008C0002FEFFC0120838981282F30E04BE0429FED
:1008D000C001439F900D11249C012B5E3E4F82E38B
:1008E00090E0A0E0B0E0F90180839183A283B3831C
:1008F0008981282F30E04BE0429FC001439F900D3B
:100900001124875E9E4FFC01108211821282138295
:100910008981282F30E04BE0429FC001439F900D1A
:100920001124835E9E4F21E833E0FC013183208354
:06093000FFCFF894FFCF99
:06093600010000000810A2
:00000001FF
