:1000000045C0000060C0000071C100005CC000007D
:100010005AC0000058C0000056C0000054C0000084
:1000200052C0000050C000004EC000004CC0000094
:100030004AC00000FAC0000046C0000044C00000F2
:1000400042C0000040C000003EC000003CC00000B4
:100050003AC0000038C0000036C0000034C00000C4
:1000600032C0000030C000002EC000002CC00000D4
:100070002AC0000028C0000026C0000024C00000E4
:1000800022C0000020C000001EC0000011241FBEBE
:10009000CFEFD0E4DEBFCDBF11E0A0E0B1E0EAE5F4
:1000A000FDE000E00BBF02C007900D92A630B10743
:1000B000D9F721E0A6E0B1E001C01D92AC33B20750
:1000C000E1F75BD548C69CCF0F931F93CF93DF9387
:1000D000CDB7DEB7109214019DC080911401282F76
:1000E00030E04BE0429FC001439F900D1124865E9B
:1000F0009E4FFC0120813181428153818091140106
:10010000682F70E0EBE0E69FC001E79F900D11249F
:100110008A5E9E4FFC0180819181A281B381281764
:1001200039074A075B0708F442C080911401082F81
:1001300010E080911401282F30E04BE0429FC00175
:10014000439F900D1124825E9E4FFC0120813181DE
:1001500080911401482F50E06BE0649FC001659FBF
:10016000900D11248B5E9E4FFC018081082E000CA7
:10017000990BF9010995382F2BE0209FC001219F91
:10018000900D11248B5E9E4FFC01308380911401F1
:10019000282F30E04BE0429FC001439F900D112477
:1001A000865E9E4FFC011082118212821382809122
:1001B0001401682F70E080911401282F30E04BE08B
:1001C000429FC001439F900D1124865E9E4FFC010B
:1001D0002081318142815381809100019091010100
:1001E000A0910201B0910301820F931FA41FB51FBC
:1001F0004BE0469F9001479F300D1124265E3E4FF5
:10020000F90180839183A283B383809114018F5F6E
:100210008093140180911401833008F45ECF0000B4
:10022000DF91CF911F910F9108951F920F9200902F
:100230005F000F92112400905B000F922F933F9369
:100240004F935F936F937F938F939F93AF93BF93DE
:10025000EF93FF93CF93DF93CDB7DEB78091060185
:1002600090910701A0910801B09109010197A1099E
:10027000B1098093060190930701A0930801B09300
:1002800009018091060190910701A0910801B091A8
:100290000901892B8A2B8B2B89F416DF80910001B1
:1002A00090910101A0910201B09103018093060198
:1002B00090930701A0930801B09309010000DF911A
:1002C000CF91FF91EF91BF91AF919F918F917F91CE
:1002D0006F915F914F913F912F910F9000925B0032
:1002E0000F9000925F000F901F9018951F920F9231
:1002F00000905F000F92112400905B000F922F93EB
:100300003F938F939F93EF93FF93CF93DF93CDB75B
:10031000DEB780910C018130A9F410920C0181E9C3
:1003200090E0FC01108284E990E0FC0180819181E1
:1003300090930B0180930A0184E990E0FC01118203
:1003400010820CC081E080930C0181E990E021E9EA
:1003500030E0F90120812260FC0120830000DF9160
:10036000CF91FF91EF919F918F913F912F910F909E
:1003700000925B000F9000925F000F901F90189505
:10038000CF93DF9300D000D0CDB7DEB769837A83F7
:100390008B839C8389819A81AB81BC81809300018E
:1003A00090930101A0930201B09303018091000199
:1003B00090910101A0910201B09103018093060187
:1003C00090930701A0930801B093090100000F90DA
:1003D0000F900F900F90DF91CF910895CF93DF93FF
:1003E000CDB7DEB781E890E02BE0FC01208388E800
:1003F00090E02DE730E0FC01318320838FE690E030
:1004000022E0FC01208384E890E0FC01118210824C
:100410008091000190910101A0910201B09103012E
:100420008093060190930701A0930801B0930901FE
:100430008FE590E02FE530E0F90120812068FC0194
:1004400020830000DF91CF910895CF93DF9300D0F8
:1004500000D000D0CDB7DEB79E838D831A8219827B
:1004600013C01C821B8206C000008B819C810196F8
:100470009C838B838B819C8187309340ACF38981F3
:100480009A8101969A83898329813A818D819E81FF
:100490002817390734F3000026960FB6F894DEBF0C
:1004A0000FBECDBFDF91CF910895CF93DF93CDB72E
:1004B000DEB784E290E020EBFC0120838CE490E046
:1004C0002CE430E0F90120812165FC0120838FE5D7
:1004D00090E02FE530E0F90120812068FC012083C5
:1004E0000000DF91CF910895CF93DF9300D000D02B
:1004F00000D0CDB7DEB78B837D836C834E8385E2DE
:1005000090E025E230E0F90120812E7FFC0120837C
:100510008EE490E02B812F712062FC01208300008B
:100520008DE490E0FC0180818823D4F78EE490E094
:10053000FC0180818A83198217C08EE490E02981B2
:10054000222F30E04C815D81240F351FF90120817D
:10055000FC01208300008DE490E0FC018081882371
:10056000D4F789818F5F898399818E81981728F3C9
:1005700085E290E025E230E0F90120812160FC0174
:1005800020838A8126960FB6F894DEBF0FBECDBFBA
:10059000DF91CF910895CF93DF9300D000D000D0AA
:1005A000CDB7DEB78B837D836C834E8385E290E08D
:1005B00025E230E0F90120812E7FFC0120838EE4CA
:1005C00090E02B812F71FC01208300008DE490E0EE
:1005D000FC0180818823D4F78EE490E0FC018081C7
:1005E0008A83198224C08EE490E02981222F30E092
:1005F0004C815D81240F351FF9012081FC0120838E
:1006000000008DE490E0FC0180818823D4F789818B
:10061000882F90E02C813D81820F931F2EE430E0E3
:10062000F9012081FC01208389818F5F8983998171
:100630008E819817C0F285E290E025E230E0F90162
:1006400020812160FC0120838A8126960FB6F894D0
:10065000DEBF0FBECDBFDF91CF910895CF93DF9363
:1006600000D000D01F92CDB7DEB79C838B836D8303
:1006700085E290E025E230E0F90120812E7FFC0147
:1006800020838EE490E021E6FC01208300008DE4CD
:1006900090E0FC0180818823D4F78EE490E0FC0197
:1006A00080818A83198224C08EE490E02981222FE0
:1006B00030E04B815C81240F351FF9012081FC0162
:1006C000208300008DE490E0FC0180818823D4F732
:1006D0008981882F90E02B813C81820F931F2EE42B
:1006E00030E0F9012081FC01208389818F5F8983BB
:1006F00099818D819817C0F285E290E025E230E083
:10070000F90120812160FC0120838A810F900F90E4
:100710000F900F900F90DF91CF910895CF93DF93BB
:100720001F92CDB7DEB785E290E025E230E0F90117
:1007300020812E7FFC0120838EE490E022EEFC01DC
:10074000208300008DE490E0FC0180818823D4F7B1
:100750008EE490E0FC018081898385E290E025E2CF
:1007600030E0F90120812160FC01208389810F9014
:10077000DF91CF910895CF93DF9300D000D0CDB714
:10078000DEB793DE84E290E024E230E0F9012081DC
:100790002360FC01208385E290E025E230E0F9014E
:1007A00020812560FC01208385E090E04EDE83E31C
:1007B000898388E18A8384E08B8386E98C8341E0A6
:1007C000CE010196BC0180E08FDE81E0898341E0AB
:1007D000CE010196BC0183E087DECE01029643E0A4
:1007E000BC018AE081DE8CE4898341E0CE01019680
:1007F000BC0185E079DE198241E0CE010196BC01A1
:1008000081E072DE85E0898341E0CE010196BC0182
:1008100081E16ADE83DF85E290E025E230E0F901E4
:1008200020812260FC01208300000F900F900F9028
:100830000F90DF91CF910895CF93DF93CDB7DEB7BF
:1008400085E290E025E230E0F9012081277FFC017C
:1008500020838AE090E0F9DD85E290E025E230E057
:10086000F90120812860FC01208385DF0000DF91F1
:10087000CF910895CF93DF931F92CDB7DEB741E0BC
:10088000CE010196BC0187E186DE8981882F90E048
:1008900081709927892B11F481E001C080E00F90CD
:1008A000DF91CF910895CF93DF9300D01F92CDB702
:1008B000DEB79A8389836B8389819A816B81CEDECF
:1008C00000000F900F900F90DF91CF910895CF937C
:1008D000DF9300D0CDB7DEB79A83898389819A816F
:1008E000009721F0019709F449C08DC0C3DF882328
:1008F00079F11092370161E08DE091E0D4DF8091D1
:100900000D0180930E0180910E0183708093100180
:1009100080910E0186958695877080930F01809156
:100920000E01829586958695837081708093110162
:1009300080910E0182958695877081708093120157
:1009400080910E01881F8827881F8093130113C090
:10095000809137018F5F8093370180913701883212
:1009600051F480E480930E011092370181E090E011
:100970009A8389834EC01A8219824BC07BDF8823F9
:1009800089F11092370161E08DE091E08CDF809178
:100990000D0180930E0180910E01837080931001F0
:1009A00080910E0186958695877080930F018091C6
:1009B0000E018295869586958370817080931101D2
:1009C00080910E01829586958770817080931201C7
:1009D00080910E01881F8827881F809313011A8237
:1009E000198217C0809137018F5F80933701809102
:1009F0003701883219F420DF1092370181E090E04E
:100A00009A83898306C010923701B5DE1A82198253
:100A1000000089819A810F900F90DF91CF91089506
:100A2000CF93DF9300D0CDB7DEB79A8389838981D6
:100A30009A81009719F00197C1F16CC080910F0164
:100A4000813021F080910F01833089F4809104017D
:100A5000813021F480E88093040109C08091040171
:100A6000813029F080910401869580930401809162
:100A70000F01843021F080910F01863089F480913C
:100A80000401803821F481E08093040109C0809141
:100A90000401803829F080910401880F80930401BB
:100AA00081E090E09A83898338C080910F01823081
:100AB00041F080910F01833021F080910F01863049
:100AC00089F480910501813021F480E8809305014B
:100AD00009C080910501813029F08091050186953A
:100AE0008093050180910F01853089F48091050183
:100AF000803821F481E08093050109C080910501CF
:100B0000803829F080910501880F809305011A82B1
:100B1000198203C01A821982000089819A810F907C
:100B20000F90DF91CF910895CF93DF9300D0CDB791
:100B3000DEB79A83898380913B01882F90E0892BCF
:100B400081F485E290E0209104012095FC0120834E
:100B500082E290E020910501FC01208310923B018C
:100B600003C010923B01000080913B01882F90E070
:100B70000F900F90DF91CF910895CF93DF931F9245
:100B8000CDB7DEB781E290E02FEFFC01208382E257
:100B900090E0FC0110828AE290E02FEFFC012083BC
:100BA0008BE290E0FC01108261E070E080E090E078
:100BB000E7DB14DC19828981282F30E04BE0429F6B
:100BC000C001439F900D11248B5E9E4F2FEFFC01BF
:100BD00020838981282F30E04BE0429FC001439F52
:100BE000900D11249C012A5E3E4F82E390E0A0E02C
:100BF000B0E0F90180839183A283B3838981282F98
:100C000030E04BE0429FC001439F900D1124865E6F
:100C10009E4FFC0110821182128213828981282F3B
:100C200030E04BE0429FC001439F900D1124825E53
:100C30009E4F27E634E0FC013183208389818F5F5A
:100C400089838981282F30E04BE0429FC001439F78
:100C5000900D11248B5E9E4F2FEFFC012083898124
:100C6000282F30E04BE0429FC001439F900D11249C
:100C70009C012A5E3E4F8CE291E0A0E0B0E0F901D9
:100C800080839183A283B3838981282F30E04BE056
:100C9000429FC001439F900D1124865E9E4FFC0130
:100CA00010821182128213828981282F30E04BE05A
:100CB000429FC001439F900D1124825E9E4F20E110
:100CC00035E0FC013183208389818F5F89838981AD
:100CD000282F30E04BE0429FC001439F900D11242C
:100CE0008B5E9E4F2FEFFC0120838981282F30E0FF
:100CF0004BE0429FC001439F900D11249C012A5E4E
:100D00003E4F82E390E0A0E0B0E0F9018083918360
:100D1000A283B3838981282F30E04BE0429FC0013A
:100D2000439F900D1124865E9E4FFC01108211821C
:100D3000128213828981282F30E04BE0429FC0014C
:100D4000439F900D1124825E9E4F24E935E0FC0103
:0A0D500031832083FFCFF894FFCF1A
:060D5A000100000008107A
:00000001FF
