S01A00004D41444C4144535F636F6E74726F6C6C65722E7372656371
S113000045C0000060C0000071C100005CC0000079
S11300105AC0000058C0000056C0000054C0000080
S113002052C0000050C000004EC000004CC0000090
S11300304AC00000FAC0000046C0000044C00000EE
S113004042C0000040C000003EC00000A6C2000044
S11300503AC0000038C0000036C0000034C00000C0
S113006032C0000030C000002EC000002CC00000D0
S11300702AC0000028C0000026C0000024C00000E0
S113008022C0000020C000001EC0000011241FBEBA
S1130090CFEFD0E4DEBFCDBF11E0A0E0B1E0E2E9F4
S11300A0FAE000E00BBF02C007900D92A430B10744
S11300B0D9F721E0A4E0B1E001C01D92AB33B2074F
S11300C0E1F7F5D3E4C49CCF0F931F93CF93DF9351
S11300D0CDB7DEB710920E019DC080910E01282F7E
S11300E030E04BE0429FC001439F900D11248B5E92
S11300F09E4FFC01208131814281538180910E0108
S1130100682F70E0EBE0E69FC001E79F900D11249B
S11301108F5E9E4FFC0180819181A281B38128175B
S113012039074A075B0708F442C080910E01082F83
S113013010E080910E01282F30E04BE0429FC00177
S1130140439F900D1124875E9E4FFC0120813181D5
S113015080910E01482F50E06BE0649FC001659FC1
S1130160900D1124805F9E4FFC018081082E000CAD
S1130170990BF9010995382F2BE0209FC001219F8D
S1130180900D1124805F9E4FFC01308380910E01FD
S1130190282F30E04BE0429FC001439F900D112473
S11301A08B5E9E4FFC011082118212821382809119
S11301B00E01682F70E080910E01282F30E04BE093
S11301C0429FC001439F900D11248B5E9E4FFC0102
S11301D020813181428153818091000190910101FC
S11301E0A0910201B0910301820F931FA41FB51FB8
S11301F04BE0469F9001479F300D11242B5E3E4FEC
S1130200F90180839183A283B38380910E018F5F70
S113021080930E0180910E01833008F45ECF0000BC
S1130220DF91CF911F910F9108951F920F9200902B
S11302305F000F92112400905B000F922F933F9365
S11302404F935F936F937F938F939F93AF93BF93DA
S1130250EF93FF93CF93DF93CDB7DEB78091040183
S113026090910501A0910601B09107010197A109A0
S1130270B1098093040190930501A0930601B09302
S113028007018091040190910501A0910601B091AC
S11302900701892B8A2B8B2B89F416DF80910001AF
S11302A090910101A0910201B09103018093040196
S11302B090930501A0930601B09307010000DF911C
S11302C0CF91FF91EF91BF91AF919F918F917F91CA
S11302D06F915F914F913F912F910F9000925B002E
S11302E00F9000925F000F901F9018951F920F922D
S11302F000905F000F92112400905B000F922F93E7
S11303003F938F939F93EF93FF93CF93DF93CDB757
S1130310DEB780910A018130A9F410920A0181E9C3
S113032090E0FC01108284E990E0FC0180819181DD
S1130330909309018093080184E990E0FC01118203
S113034010820CC081E080930A0181E990E021E9E8
S113035030E0F90120812260FC0120830000DF915C
S1130360CF91FF91EF919F918F913F912F910F909A
S113037000925B000F9000925F000F901F90189501
S1130380CF93DF9300D000D0CDB7DEB769837A83F3
S11303908B839C8389819A81AB81BC81809300018A
S11303A090930101A0930201B09303018091000195
S11303B090910101A0910201B09103018093040185
S11303C090930501A0930601B093070100000F90DC
S11303D00F900F900F90DF91CF910895CF93DF93FB
S11303E0CDB7DEB781E890E02BE0FC01208388E8FC
S11303F090E02DE730E0FC01318320838FE690E02C
S113040022E0FC01208384E890E0FC011182108248
S11304108091000190910101A0910201B09103012A
S11304208093040190930501A0930601B093070102
S11304308FE590E02FE530E0F90120812068FC0190
S113044020830000DF91CF910895CF93DF931F9213
S1130450CDB7DEB7898389818130E9F081EC90E002
S113046021EC30E0F90120812861FC01208382EC39
S113047090E022EC30E0F90120812660FC01208329
S113048084EC90E021E8FC01208385EC90E026E0F8
S1130490FC0120831CC089EC90E029EC30E0F901D8
S11304A020812861FC0120838AEC90E02AEC30E072
S11304B0F90120812660FC0120838CEC90E021E886
S11304C0FC0120838DEC90E026E0FC0120830000F9
S11304D00F90DF91CF910895CF93DF931F92CDB703
S11304E0DEB789838981813031F080EC90E0FC01B2
S11304F08081807205C088EC90E0FC01808180726C
S11305000F90DF91CF910895CF93DF931F92CDB7D2
S1130510DEB789838981813031F080EC90E0FC0181
S11305208081807405C088EC90E0FC018081807437
S11305300F90DF91CF910895CF93DF9300D0CDB783
S1130540DEB789836A838A81813089F0000080EC78
S113055090E0FC018081882F90E080729927892B9C
S1130560B1F386EC90E02981FC01208310C00000E7
S113057088EC90E0FC018081882F90E080729927BC
S1130580892BB1F38EEC90E02981FC0120830000DB
S11305900F900F90DF91CF9108951F920F920090CA
S11305A05F000F92112400905B000F928F939F9332
S11305B0EF93FF93CF93DF93CDB7DEB78EE490E054
S11305C0FC01808180930B010000DF91CF91FF91AA
S11305D0EF919F918F910F9000925B000F9000928A
S11305E05F000F901F901895CF93DF931F92CDB7A4
S11305F0DEB789838CE790E02981283028F02CE746
S113060030E0F901208101C02981FC01208310928E
S11306100F0106C0000080910F018F5F80930F01CE
S113062080910F018F30B0F300000F90DF91CF91D4
S11306300895CF93DF93CDB7DEB78AE790E02AE73A
S113064030E0F9012081206EFC0120830000DF915D
S1130650CF910895CF93DF93CDB7DEB78AE790E0CB
S11306602AE730E0F90120812064FC0120830000A6
S11306708AE790E0FC018081882F90E080719927BF
S1130680892BB1F30000DF91CF910895CF93DF93CD
S113069000D0CDB7DEB79A83898389819A81009788
S11306A019F0019791F159C080E09EDFD3DF88E70C
S11306B090E0FC0180819181909337018093360111
S11306C080910D01837E80930D018091360190917C
S11306D037018D3B924038F080910D01877E886010
S11306E080930D010DC080913601909137018E35B4
S11306F0914030F480910D01837F846080930D01DB
S113070081E090E09A8389832BC081E06DDFA2DFD2
S113071088E790E0FC018081918190933A01809375
S113072039018091390190913A018935924030F034
S113073080910D018F7E80930D010CC08091390151
S113074090913A01843F914028F480910D01806199
S113075080930D011A82198203C01A821982000043
S113076089819A810F900F90DF91CF910895CF9353
S1130770DF9300D0CDB7DEB79A83898389819A81CC
S1130780892B81F583E030DF65DF88E790E0FC01A9
S113079080819181909334018093330180910D0184
S11307A08C7F80930D0180913601909137018D3BB0
S11307B0924038F080910D01857E826080930D0116
S11307C00DC080913601909137018E35914030F4FF
S11307D080910D01837F846080930D0181E080937B
S11307E0350103C010923501000089819A810F9070
S11307F00F90DF91CF910895CF93DF9300D0CDB7C1
S1130800DEB79A83898389819A81009719F00197C9
S113081081F042C010920C0181E076DE882321F041
S113082080910D018093320181E090E09A83898365
S113083037C01A82198281E04FDE882381F18091CA
S11308400C01833060F580910C01882329F4809198
S1130850320180688093310180910C01813029F448
S11308608091320180648093310180910C01823047
S113087029F48091320180628093310180913101A9
S113088061E05ADE80910C018F5F80930C0181E05E
S113089090E09A83898303C01A82198201C0000000
S11308A089819A810F900F90DF91CF910895CF9312
S11308B0DF931F92CDB7DEB781E290E0FC01108296
S11308C082E290E02FEFFC01208384E290E02FEF9E
S11308D0FC01208385E290E0FC01108261E070E07D
S11308E080E090E04DDD7ADDA4DE81E0AEDD1982AA
S11308F08981282F30E04BE0429FC001439F900D37
S11309001124805F9E4F2FEFFC0120838981282FC3
S113091030E04BE0429FC001439F900D11249C01A5
S11309202F5E3E4F82E390E0A0E0B0E0F9018083C7
S11309309183A283B3838981282F30E04BE0429FC7
S1130940C001439F900D11248B5E9E4FFC011082C9
S11309501182128213828981282F30E04BE0429F5A
S1130960C001439F900D1124875E9E4F26E433E01F
S1130970FC013183208389818F5F89838981282FBA
S113098030E04BE0429FC001439F900D1124805FF3
S11309909E4F2FEFFC0120838981282F30E04BE00C
S11309A0429FC001439F900D11249C012F5E3E4F36
S11309B082E390E0A0E0B0E0F90180839183A28318
S11309C0B3838981282F30E04BE0429FC001439FCD
S11309D0900D11248B5E9E4FFC01108211821282B5
S11309E013828981282F30E04BE0429FC001439F4E
S11309F0900D1124875E9E4F27EB33E0FC01318379
S1130A00208389818F5F89838981282F30E04BE09F
S1130A10429FC001439F900D1124805F9E4FFC01B3
S1130A2010828981282F30E04BE0429FC001439F10
S1130A30900D11249C012F5E3E4F89E190E0A0E0CF
S1130A40B0E0F90180839183A283B3838981282F45
S1130A5030E04BE0429FC001439F900D11248B5E18
S1130A609E4FFC0110821182128213828981282FE9
S1130A7030E04BE0429FC001439F900D1124875EFC
S1130A809E4F2CEF33E0FC0131832083FFCFF89499
S1050A90FFCF92
S1070A92010000005B
S9030000FC
