:1000000045C0000060C0000071C100005CC000007D
:100010005AC0000058C0000056C0000054C0000084
:1000200052C0000050C000004EC000004CC0000094
:100030004AC00000FAC0000046C0000044C00000F2
:1000400042C0000040C000003EC0000054C200009A
:100050003AC0000038C0000036C0000034C00000C4
:1000600032C0000030C000002EC000002CC00000D4
:100070002AC0000028C0000026C0000024C00000E4
:1000800022C0000020C000001EC0000011241FBEBE
:10009000CFEFD0E4DEBFCDBF11E0A0E0B1E0ECEEE9
:1000A000FAE000E00BBF02C007900D92A430B10748
:1000B000D9F721E0A4E0B1E001C01D92AE33B20750
:1000C000E1F722D411C59CCF0F931F93CF93DF93F9
:1000D000CDB7DEB7109211019DC080911101282F7C
:1000E00030E04BE0429FC001439F900D1124885E99
:1000F0009E4FFC0120813181428153818091110109
:10010000682F70E0EBE0E69FC001E79F900D11249F
:100110008C5E9E4FFC0180819181A281B381281762
:1001200039074A075B0708F442C080911101082F84
:1001300010E080911101282F30E04BE0429FC00178
:10014000439F900D1124845E9E4FFC0120813181DC
:1001500080911101482F50E06BE0649FC001659FC2
:10016000900D11248D5E9E4FFC018081082E000CA5
:10017000990BF9010995382F2BE0209FC001219F91
:10018000900D11248D5E9E4FFC01308380911101F2
:10019000282F30E04BE0429FC001439F900D112477
:1001A000885E9E4FFC011082118212821382809120
:1001B0001101682F70E080911101282F30E04BE091
:1001C000429FC001439F900D1124885E9E4FFC0109
:1001D0002081318142815381809100019091010100
:1001E000A0910201B0910301820F931FA41FB51FBC
:1001F0004BE0469F9001479F300D1124285E3E4FF3
:10020000F90180839183A283B383809111018F5F71
:100210008093110180911101833008F45ECF0000BA
:10022000DF91CF911F910F9108951F920F9200902F
:100230005F000F92112400905B000F922F933F9369
:100240004F935F936F937F938F939F93AF93BF93DE
:10025000EF93FF93CF93DF93CDB7DEB78091040187
:1002600090910501A0910601B09107010197A109A4
:10027000B1098093040190930501A0930601B09306
:1002800007018091040190910501A0910601B091B0
:100290000701892B8A2B8B2B89F416DF80910001B3
:1002A00090910101A0910201B0910301809304019A
:1002B00090930501A0930601B09307010000DF9120
:1002C000CF91FF91EF91BF91AF919F918F917F91CE
:1002D0006F915F914F913F912F910F9000925B0032
:1002E0000F9000925F000F901F9018951F920F9231
:1002F00000905F000F92112400905B000F922F93EB
:100300003F938F939F93EF93FF93CF93DF93CDB75B
:10031000DEB780910A018130A9F410920A0181E9C7
:1003200090E0FC01108284E990E0FC0180819181E1
:10033000909309018093080184E990E0FC01118207
:1003400010820CC081E080930A0181E990E021E9EC
:1003500030E0F90120812260FC0120830000DF9160
:10036000CF91FF91EF919F918F913F912F910F909E
:1003700000925B000F9000925F000F901F90189505
:10038000CF93DF9300D000D0CDB7DEB769837A83F7
:100390008B839C8389819A81AB81BC81809300018E
:1003A00090930101A0930201B09303018091000199
:1003B00090910101A0910201B09103018093040189
:1003C00090930501A0930601B093070100000F90E0
:1003D0000F900F900F90DF91CF910895CF93DF93FF
:1003E000CDB7DEB781E890E02BE0FC01208388E800
:1003F00090E02DE730E0FC01318320838FE690E030
:1004000022E0FC01208384E890E0FC01118210824C
:100410008091000190910101A0910201B09103012E
:100420008093040190930501A0930601B093070106
:100430008FE590E02FE530E0F90120812068FC0194
:1004400020830000DF91CF910895CF93DF93CDB744
:10045000DEB784E290E024E230E0F9012081206BF5
:10046000FC0120838CE490E02CE430E0F901208151
:100470002165FC0120838FE590E02FE530E0F90154
:1004800020812068FC0120830000DF91CF91089536
:10049000CF93DF931F92CDB7DEB7898384E290E0DC
:1004A00024E230E0F9012081FC0120838EE490E019
:1004B000FC01108200008DE490E0FC018081882323
:1004C000D4F78EE490E02981FC01208300008DE4C4
:1004D00090E0FC0180818823D4F784E290E024E25C
:1004E00030E0F90120812061FC01208300000F90A1
:1004F000DF91CF9108951F920F9200905F000F92AD
:10050000112400905B000F928F939F93EF93FF93C2
:10051000CF93DF93CDB7DEB78EE490E0FC0180810E
:1005200080930B010000DF91CF91FF91EF919F919C
:100530008F910F9000925B000F9000925F000F90E0
:100540001F901895CF93DF931F92CDB7DEB78983A5
:100550008CE790E02981283028F02CE730E0F90181
:10056000208101C02981FC0120831092120106C064
:100570000000809112018F5F80931201809112011F
:100580008F30B0F300000F90DF91CF910895CF939B
:10059000DF93CDB7DEB78AE790E02AE730E0F901D4
:1005A0002081206EFC0120830000DF91CF9108950F
:1005B000CF93DF93CDB7DEB78AE790E02AE730E04C
:1005C000F90120812064FC01208300008AE790E08B
:1005D000FC018081882F90E080719927892BB1F3ED
:1005E0000000DF91CF910895CF93DF9300D0CDB776
:1005F000DEB79A83898389819A818130910509F4D4
:100600005BC08230910509F496C0892B09F0C0C007
:1006100082E098DFCDDF88E790E0FC018081918166
:100620009093380180933701809137019091380180
:100630008D3B9240B0F080913C01882391F48091F1
:100640003501813039F480910D018B7E806180937A
:100650000D012DC080910D01837E806180930D017D
:1006600026C080913701909138018E359140B0F4C9
:1006700080913C01882391F480913501813039F4D7
:1006800080910D018B7E846080930D0110C080915C
:100690000D01837E846080930D0109C080913C012F
:1006A000882329F480910D018B7E80930D0181E0D8
:1006B00090E09A8389836FC083E044DF79DF88E725
:1006C00090E0FC018081918190933B0180933A01FD
:1006D00080913A0190913B018D3B924058F080917E
:1006E0000D01886080930D0181E0809335011092A7
:1006F0003C011CC080913A0190913B018E359140A4
:1007000060F480910D01837E846180930D011092CD
:10071000350181E080933C0109C080910D01877F04
:1007200080930D011092350110923C0182E090E01F
:100730009A83898330C080E005DF3ADF88E790E064
:10074000FC018081918190930F0180930E01809133
:100750000D018C7F80930D0180910E0190910F010E
:100760008D3B924030F080910D01816080930D01AE
:100770000CC080910E0190910F018E35914028F4AC
:1007800080910D01826080930D011A82198203C04D
:100790001A821982000089819A810F900F90DF914F
:1007A000CF910895CF93DF9300D0CDB7DEB79A8372
:1007B000898389819A81892B09F042C086E290E081
:1007C000FC018081882F90E081709927892B01F5A9
:1007D00086E290E0FC018081882F90E0827099276A
:1007E000892BB1F080911001882351F481E080932E
:1007F000100180910D018F79806480930D011DC0DF
:100800001092100180910D018F7980930D0115C018
:1008100086E290E0FC018081882F90E08270992729
:10082000892B31F480910D01806280930D0105C008
:1008300080910D018F7D80930D011A82198203C072
:100840001A821982000089819A810F900F90DF919E
:10085000CF910895CF93DF9300D000D0CDB7DEB70E
:100860009C838B838B819C81009719F00197D1F138
:100870003FC010920C011A8219821BC080910D0199
:10088000882F90E0098002C0959587950A94E2F739
:1008900081708093340180913401813029F48091FA
:1008A0000C018F5F80930C0189819A8101969A8354
:1008B000898389819A8107970CF380910C0181705B
:1008C000882331F480910D018F7780930D0105C04D
:1008D00080910D01806880930D0181E090E09C8300
:1008E0008B8309C080910D01D3DD1C821B8203C064
:1008F0001C821B8200008B819C810F900F900F90B7
:100900000F90DF91CF910895CF93DF931F92CDB7D2
:10091000DEB781E290E0FC01108282E290E02FEFEE
:10092000FC01208387E290E0FC01108288E290E0E5
:100930002FEFFC0120832BDE88DD61E070E080E09A
:1009400090E01EDD4BDD19828981282F30E04BE0DD
:10095000429FC001439F900D11248D5E9E4F2FEF4B
:10096000FC0120838981282F30E04BE0429FC001A9
:10097000439F900D11249C012C5E3E4F82E390E03A
:10098000A0E0B0E0F90180839183A283B3838981E1
:10099000282F30E04BE0429FC001439F900D11246F
:1009A000885E9E4FFC01108211821282138289811F
:1009B000282F30E04BE0429FC001439F900D11244F
:1009C000845E9E4F24EF32E0FC01318320838981D5
:1009D0008F5F89838981282F30E04BE0429FC001DF
:1009E000439F900D11248D5E9E4F2FEFFC012083BD
:1009F0008981282F30E04BE0429FC001439F900D3A
:100A000011249C012C5E3E4F82E390E0A0E0B0E018
:100A1000F90180839183A283B3838981282F30E0F9
:100A20004BE0429FC001439F900D1124885E9E4F72
:100A3000FC0110821182128213828981282F30E0FA
:100A40004BE0429FC001439F900D1124845E9E4F56
:100A500022ED33E0FC013183208389818F5F89831C
:100A60008981282F30E04BE0429FC001439F900DC9
:100A700011248D5E9E4F2FEFFC0120838981282F4A
:100A800030E04BE0429FC001439F900D11249C0138
:100A90002C5E3E4F89E190E0A0E0B0E0F901808358
:100AA0009183A283B3838981282F30E04BE0429F5A
:100AB000C001439F900D1124885E9E4FFC0110825F
:100AC0001182128213828981282F30E04BE0429FED
:100AD000C001439F900D1124845E9E4F2AE234E0B2
:0C0AE000FC0131832083FFCFF894FFCF8E
:040AEC000100000005
:00000001FF
