S01A00004D41444C4144535F636F6E74726F6C6C65722E7372656371
S113000045C0000060C0000071C100005CC0000079
S11300105AC0000058C0000056C0000054C0000080
S113002052C0000050C000004EC000004CC0000090
S11300304AC00000FAC0000046C0000044C00000EE
S113004042C0000040C000003EC0000054C2000096
S11300503AC0000038C0000036C0000034C00000C0
S113006032C0000030C000002EC000002CC00000D0
S11300702AC0000028C0000026C0000024C00000E0
S113008022C0000020C000001EC0000011241FBEBA
S1130090CFEFD0E4DEBFCDBF11E0A0E0B1E0EEEBE6
S11300A0FAE000E00BBF02C007900D92A430B10744
S11300B0D9F721E0A4E0B1E001C01D92A634B20753
S11300C0E1F7BFD3FAC49CCF0F931F93CF93DF9371
S11300D0CDB7DEB7109210019DC080911001282F7A
S11300E030E04BE0429FC001439F900D1124895E94
S11300F09E4FFC0120813181428153818091100106
S1130100682F70E0EBE0E69FC001E79F900D11249B
S11301108D5E9E4FFC0180819181A281B38128175D
S113012039074A075B0708F442C080911001082F81
S113013010E080911001282F30E04BE0429FC00175
S1130140439F900D1124855E9E4FFC0120813181D7
S113015080911001482F50E06BE0649FC001659FBF
S1130160900D11248E5E9E4FFC018081082E000CA0
S1130170990BF9010995382F2BE0209FC001219F8D
S1130180900D11248E5E9E4FFC01308380911001EE
S1130190282F30E04BE0429FC001439F900D112473
S11301A0895E9E4FFC01108211821282138280911B
S11301B01001682F70E080911001282F30E04BE08F
S11301C0429FC001439F900D1124895E9E4FFC0104
S11301D020813181428153818091000190910101FC
S11301E0A0910201B0910301820F931FA41FB51FB8
S11301F04BE0469F9001479F300D1124295E3E4FEE
S1130200F90180839183A283B383809110018F5F6E
S11302108093100180911001843008F45ECF0000B7
S1130220DF91CF911F910F9108951F920F9200902B
S11302305F000F92112400905B000F922F933F9365
S11302404F935F936F937F938F939F93AF93BF93DA
S1130250EF93FF93CF93DF93CDB7DEB78091040183
S113026090910501A0910601B09107010197A109A0
S1130270B1098093040190930501A0930601B09302
S113028007018091040190910501A0910601B091AC
S11302900701892B8A2B8B2B89F416DF80910001AF
S11302A090910101A0910201B09103018093040196
S11302B090930501A0930601B09307010000DF911C
S11302C0CF91FF91EF91BF91AF919F918F917F91CA
S11302D06F915F914F913F912F910F9000925B002E
S11302E00F9000925F000F901F9018951F920F922D
S11302F000905F000F92112400905B000F922F93E7
S11303003F938F939F93EF93FF93CF93DF93CDB757
S1130310DEB780910A018130A9F410920A0181E9C3
S113032090E0FC01108284E990E0FC0180819181DD
S1130330909309018093080184E990E0FC01118203
S113034010820CC081E080930A0181E990E021E9E8
S113035030E0F90120812260FC0120830000DF915C
S1130360CF91FF91EF919F918F913F912F910F909A
S113037000925B000F9000925F000F901F90189501
S1130380CF93DF9300D000D0CDB7DEB769837A83F3
S11303908B839C8389819A81AB81BC81809300018A
S11303A090930101A0930201B09303018091000195
S11303B090910101A0910201B09103018093040185
S11303C090930501A0930601B093070100000F90DC
S11303D00F900F900F90DF91CF910895CF93DF93FB
S11303E0CDB7DEB781E890E02BE0FC01208388E8FC
S11303F090E02DE730E0FC01318320838FE690E02C
S113040022E0FC01208384E890E0FC011182108248
S11304108091000190910101A0910201B09103012A
S11304208093040190930501A0930601B093070102
S11304308FE590E02FE530E0F90120812068FC0190
S113044020830000DF91CF910895CF93DF93CDB740
S1130450DEB784E290E024E230E0F9012081206BF1
S1130460FC0120838CE490E02CE430E0F90120814D
S11304702165FC0120838FE590E02FE530E0F90150
S113048020812068FC0120830000DF91CF91089532
S1130490CF93DF931F92CDB7DEB7898384E290E0D8
S11304A024E230E0F9012081FC0120838EE490E015
S11304B0FC01108200008DE490E0FC01808188231F
S11304C0D4F78EE490E02981FC01208300008DE4C0
S11304D090E0FC0180818823D4F784E290E024E258
S11304E030E0F90120812061FC01208300000F909D
S11304F0DF91CF9108951F920F9200905F000F92A9
S1130500112400905B000F928F939F93EF93FF93BE
S1130510CF93DF93CDB7DEB78EE490E0FC0180810A
S113052080930B010000DF91CF91FF91EF919F9198
S11305308F910F9000925B000F9000925F000F90DC
S11305401F901895CF93DF931F92CDB7DEB78983A1
S11305508CE790E02981283028F02CE730E0F9017D
S1130560208101C02981FC0120831092110106C061
S11305700000809111018F5F80931101809111011E
S11305808F30B0F300000F90DF91CF910895CF9397
S1130590DF93CDB7DEB78AE790E02AE730E0F901D0
S11305A02081206EFC0120830000DF91CF9108950B
S11305B0CF93DF93CDB7DEB78AE790E02AE730E048
S11305C0F90120812064FC01208300008AE790E087
S11305D0FC018081882F90E080719927892BB1F3E9
S11305E00000DF91CF910895CF93DF9300D0CDB772
S11305F0DEB79A83898389819A81009719F00197DC
S113060091F15AC082E09EDFD3DF88E790E0FC01DD
S113061080819181909341018093400180910D01EB
S1130620837E80930D0180914001909141018D3B27
S1130630924038F080910D01837E806180930D019A
S11306400DC080914001909141018E35914030F46C
S113065080910D01837E846080930D0181E090E0A0
S11306609A8389832CC083E06DDFA2DF88E790E062
S1130670FC01808191819093450180934401809194
S11306804401909145018D3B924030F080910D01E1
S1130690886080930D010DC08091440190914501C3
S11306A08E35914030F480910D01837E8461809376
S11306B00D011A82198203C01A82198200008981ED
S11306C09A810F900F90DF91CF910895CF93DF938C
S11306D000D0CDB7DEB79A83898389819A81892B2B
S11306E079F580E02FDF64DF88E790E0FC0180810A
S11306F0918190930F0180930E0180910D018C7F65
S113070080930D0180914001909141018D3B924075
S113071038F080910D018C7F826080930D010DC0B3
S113072080914001909141018E35914030F4809147
S11307300D018C7F816080930D0110923F0103C0F5
S113074010923F01000089819A810F900F90DF91F0
S1130750CF910895CF93DF9300D0CDB7DEB79A83BE
S1130760898389819A81892B41F480910D018F7944
S113077080930D0110923F0103C010923F010000CD
S113078089819A810F900F90DF91CF910895CF9333
S1130790DF9300D000D0CDB7DEB79C838B838B81F1
S11307A09C81009719F00197D1F13FC010920C0180
S11307B01A8219821BC080910D01882F90E0098054
S11307C002C0959587950A94E2F7817080933E0163
S11307D080913E01813029F480910C018F5F8093D8
S11307E00C0189819A8101969A83898389819A81EE
S11307F007970CF380910C018170882331F4809168
S11308000D018F7780930D0105C080910D018068E3
S113081080930D0181E090E09C838B8309C08091DB
S11308200D0136DE1C821B8203C01C821B82000069
S11308308B819C810F900F900F900F90DF91CF913F
S11308400895CF93DF931F92CDB7DEB781E290E096
S1130850FC01108282E290E02FEFFC0120838AE207
S113086090E02FEFFC0120838BE290E0FC011082EA
S113087061E070E080E090E083DDB0DD88DEE5DDFE
S113088019828981282F30E04BE0429FC001439FA9
S1130890900D11248E5E9E4F2FEFFC0120838981E1
S11308A0282F30E04BE0429FC001439F900D11245C
S11308B09C012D5E3E4F82E390E0A0E0B0E0F901A0
S11308C080839183A283B3838981282F30E04BE016
S11308D0429FC001439F900D1124895E9E4FFC01ED
S11308E010821182128213828981282F30E04BE01A
S11308F0429FC001439F900D1124855E9E4F24EFBB
S113090032E0FC013183208389818F5F898389816F
S1130910282F30E04BE0429FC001439F900D1124EB
S11309208E5E9E4F2FEFFC0120838981282F30E0BB
S11309304BE0429FC001439F900D11249C012D5E0A
S11309403E4F82E390E0A0E0B0E0F9018083918320
S1130950A283B3838981282F30E04BE0429FC001FA
S1130960439F900D1124895E9E4FFC0110821182D9
S1130970128213828981282F30E04BE0429FC0010C
S1130980439F900D1124855E9E4F26E633E0FC01C3
S11309903183208389818F5F89838981282F30E087
S11309A04BE0429FC001439F900D11248E5E9E4FE9
S11309B02FEFFC0120838981282F30E04BE0429FF8
S11309C0C001439F900D11249C012D5E3E4F82E394
S11309D090E0A0E0B0E0F90180839183A283B38327
S11309E08981282F30E04BE0429FC001439F900D46
S11309F01124895E9E4FFC0110821182128213829F
S1130A008981282F30E04BE0429FC001439F900D25
S1130A101124855E9E4F2AEA33E0FC013183208352
S1130A2089818F5F89838981282F30E04BE0429F41
S1130A30C001439F900D11248E5E9E4F2FEFFC0149
S1130A4020838981282F30E04BE0429FC001439FDF
S1130A50900D11249C012D5E3E4F89E190E0A0E0B1
S1130A60B0E0F90180839183A283B3838981282F25
S1130A7030E04BE0429FC001439F900D1124895EFA
S1130A809E4FFC0110821182128213828981282FC9
S1130A9030E04BE0429FC001439F900D1124855EDE
S1130AA09E4F27EC33E0FC01318320838BE290E0FE
S1110AB020910D01FC012083F9CFF894FFCFB3
S1070ABE010000002F
S9030000FC
